{"abi":[{"type":"constructor","inputs":[],"stateMutability":"nonpayable"},{"type":"function","name":"approve","inputs":[{"name":"to","type":"address","internalType":"address"},{"name":"tokenId","type":"uint256","internalType":"uint256"}],"outputs":[],"stateMutability":"nonpayable"},{"type":"function","name":"balanceOf","inputs":[{"name":"owner","type":"address","internalType":"address"}],"outputs":[{"name":"","type":"uint256","internalType":"uint256"}],"stateMutability":"view"},{"type":"function","name":"getApproved","inputs":[{"name":"tokenId","type":"uint256","internalType":"uint256"}],"outputs":[{"name":"","type":"address","internalType":"address"}],"stateMutability":"view"},{"type":"function","name":"getTokenId","inputs":[],"outputs":[{"name":"","type":"uint256","internalType":"uint256"}],"stateMutability":"view"},{"type":"function","name":"isApprovedForAll","inputs":[{"name":"owner","type":"address","internalType":"address"},{"name":"operator","type":"address","internalType":"address"}],"outputs":[{"name":"","type":"bool","internalType":"bool"}],"stateMutability":"view"},{"type":"function","name":"mintNft","inputs":[],"outputs":[],"stateMutability":"payable"},{"type":"function","name":"name","inputs":[],"outputs":[{"name":"","type":"string","internalType":"string"}],"stateMutability":"view"},{"type":"function","name":"owner","inputs":[],"outputs":[{"name":"","type":"address","internalType":"address payable"}],"stateMutability":"view"},{"type":"function","name":"ownerOf","inputs":[{"name":"tokenId","type":"uint256","internalType":"uint256"}],"outputs":[{"name":"","type":"address","internalType":"address"}],"stateMutability":"view"},{"type":"function","name":"safeTransferFrom","inputs":[{"name":"from","type":"address","internalType":"address"},{"name":"to","type":"address","internalType":"address"},{"name":"tokenId","type":"uint256","internalType":"uint256"}],"outputs":[],"stateMutability":"nonpayable"},{"type":"function","name":"safeTransferFrom","inputs":[{"name":"from","type":"address","internalType":"address"},{"name":"to","type":"address","internalType":"address"},{"name":"tokenId","type":"uint256","internalType":"uint256"},{"name":"data","type":"bytes","internalType":"bytes"}],"outputs":[],"stateMutability":"nonpayable"},{"type":"function","name":"setApprovalForAll","inputs":[{"name":"operator","type":"address","internalType":"address"},{"name":"approved","type":"bool","internalType":"bool"}],"outputs":[],"stateMutability":"nonpayable"},{"type":"function","name":"supportsInterface","inputs":[{"name":"interfaceId","type":"bytes4","internalType":"bytes4"}],"outputs":[{"name":"","type":"bool","internalType":"bool"}],"stateMutability":"view"},{"type":"function","name":"symbol","inputs":[],"outputs":[{"name":"","type":"string","internalType":"string"}],"stateMutability":"view"},{"type":"function","name":"tokenURI","inputs":[{"name":"tokenId","type":"uint256","internalType":"uint256"}],"outputs":[{"name":"","type":"string","internalType":"string"}],"stateMutability":"view"},{"type":"function","name":"transferFrom","inputs":[{"name":"from","type":"address","internalType":"address"},{"name":"to","type":"address","internalType":"address"},{"name":"tokenId","type":"uint256","internalType":"uint256"}],"outputs":[],"stateMutability":"nonpayable"},{"type":"function","name":"withdraw","inputs":[],"outputs":[],"stateMutability":"nonpayable"},{"type":"event","name":"Approval","inputs":[{"name":"owner","type":"address","indexed":true,"internalType":"address"},{"name":"approved","type":"address","indexed":true,"internalType":"address"},{"name":"tokenId","type":"uint256","indexed":true,"internalType":"uint256"}],"anonymous":false},{"type":"event","name":"ApprovalForAll","inputs":[{"name":"owner","type":"address","indexed":true,"internalType":"address"},{"name":"operator","type":"address","indexed":true,"internalType":"address"},{"name":"approved","type":"bool","indexed":false,"internalType":"bool"}],"anonymous":false},{"type":"event","name":"Transfer","inputs":[{"name":"from","type":"address","indexed":true,"internalType":"address"},{"name":"to","type":"address","indexed":true,"internalType":"address"},{"name":"tokenId","type":"uint256","indexed":true,"internalType":"uint256"}],"anonymous":false},{"type":"error","name":"ERC721IncorrectOwner","inputs":[{"name":"sender","type":"address","internalType":"address"},{"name":"tokenId","type":"uint256","internalType":"uint256"},{"name":"owner","type":"address","internalType":"address"}]},{"type":"error","name":"ERC721InsufficientApproval","inputs":[{"name":"operator","type":"address","internalType":"address"},{"name":"tokenId","type":"uint256","internalType":"uint256"}]},{"type":"error","name":"ERC721InvalidApprover","inputs":[{"name":"approver","type":"address","internalType":"address"}]},{"type":"error","name":"ERC721InvalidOperator","inputs":[{"name":"operator","type":"address","internalType":"address"}]},{"type":"error","name":"ERC721InvalidOwner","inputs":[{"name":"owner","type":"address","internalType":"address"}]},{"type":"error","name":"ERC721InvalidReceiver","inputs":[{"name":"receiver","type":"address","internalType":"address"}]},{"type":"error","name":"ERC721InvalidSender","inputs":[{"name":"sender","type":"address","internalType":"address"}]},{"type":"error","name":"ERC721NonexistentToken","inputs":[{"name":"tokenId","type":"uint256","internalType":"uint256"}]}],"bytecode":{"object":"0x60806040523480156200001157600080fd5b506040518060400160405280600681526020016542697264696560d01b815250604051806040016040528060048152602001631092549160e21b81525081600090816200005f919062000135565b5060016200006e828262000135565b5050600880546001600160a01b0319163317905550600160065562000201565b634e487b7160e01b600052604160045260246000fd5b600181811c90821680620000b957607f821691505b602082108103620000da57634e487b7160e01b600052602260045260246000fd5b50919050565b601f82111562000130576000816000526020600020601f850160051c810160208610156200010b5750805b601f850160051c820191505b818110156200012c5782815560010162000117565b5050505b505050565b81516001600160401b038111156200015157620001516200008e565b6200016981620001628454620000a4565b84620000e0565b602080601f831160018114620001a15760008415620001885750858301515b600019600386901b1c1916600185901b1785556200012c565b600085815260208120601f198616915b82811015620001d257888601518255948401946001909101908401620001b1565b5085821015620001f15787850151600019600388901b60f8161c191681555b5050505050600190811b01905550565b6111b680620002116000396000f3fe6080604052600436106100fe5760003560e01c80636352211e11610095578063a22cb46511610064578063a22cb4651461029d578063b88d4fde146102bd578063c2229fea146102dd578063c87b56dd146102e5578063e985e9c51461030557600080fd5b80636352211e1461022857806370a08231146102485780638da5cb5b1461026857806395d89b411461028857600080fd5b8063095ea7b3116100d1578063095ea7b3146101b157806323b872dd146101d35780633ccfd60b146101f357806342842e0e1461020857600080fd5b8063010a38f51461010357806301ffc9a71461012757806306fdde0314610157578063081812fc14610179575b600080fd5b34801561010f57600080fd5b506006545b6040519081526020015b60405180910390f35b34801561013357600080fd5b50610147610142366004610d21565b610325565b604051901515815260200161011e565b34801561016357600080fd5b5061016c610377565b60405161011e9190610d8b565b34801561018557600080fd5b50610199610194366004610d9e565b610409565b6040516001600160a01b03909116815260200161011e565b3480156101bd57600080fd5b506101d16101cc366004610dd3565b610432565b005b3480156101df57600080fd5b506101d16101ee366004610dfd565b610441565b3480156101ff57600080fd5b506101d16104d1565b34801561021457600080fd5b506101d1610223366004610dfd565b61058e565b34801561023457600080fd5b50610199610243366004610d9e565b6105ae565b34801561025457600080fd5b50610114610263366004610e39565b6105b9565b34801561027457600080fd5b50600854610199906001600160a01b031681565b34801561029457600080fd5b5061016c610601565b3480156102a957600080fd5b506101d16102b8366004610e54565b610610565b3480156102c957600080fd5b506101d16102d8366004610ea6565b61061b565b6101d1610632565b3480156102f157600080fd5b5061016c610300366004610d9e565b6106ce565b34801561031157600080fd5b50610147610320366004610f82565b610770565b60006001600160e01b031982166380ac58cd60e01b148061035657506001600160e01b03198216635b5e139f60e01b145b8061037157506301ffc9a760e01b6001600160e01b03198316145b92915050565b60606000805461038690610fb5565b80601f01602080910402602001604051908101604052809291908181526020018280546103b290610fb5565b80156103ff5780601f106103d4576101008083540402835291602001916103ff565b820191906000526020600020905b8154815290600101906020018083116103e257829003601f168201915b5050505050905090565b60006104148261079e565b506000828152600460205260409020546001600160a01b0316610371565b61043d8282336107d7565b5050565b6001600160a01b03821661047057604051633250574960e11b8152600060048201526024015b60405180910390fd5b600061047d8383336107e4565b9050836001600160a01b0316816001600160a01b0316146104cb576040516364283d7b60e01b81526001600160a01b0380861660048301526024820184905282166044820152606401610467565b50505050565b6008546001600160a01b0316331461052b5760405162461bcd60e51b815260206004820152601760248201527f43616c6c6572206973206e6f7420746865206f776e65720000000000000000006044820152606401610467565b6008546040516000916001600160a01b03169047908381818185875af1925050503d8060008114610578576040519150601f19603f3d011682016040523d82523d6000602084013e61057d565b606091505b505090508061058b57600080fd5b50565b6105a98383836040518060200160405280600081525061061b565b505050565b60006103718261079e565b60006001600160a01b0382166105e5576040516322718ad960e21b815260006004820152602401610467565b506001600160a01b031660009081526003602052604090205490565b60606001805461038690610fb5565b61043d3383836108dd565b610626848484610441565b6104cb8484848461097c565b670de0b6b3a764000034101561067f5760405162461bcd60e51b8152602060048201526012602482015271496e73756666696369656e742066756e647360701b6044820152606401610467565b600061068c6006546106ce565b905061069a33600654610aa5565b60065460009081526007602052604090206106b5828261103f565b50600680549060006106c6836110ff565b919050555050565b60008181526007602052604090208054606091906106eb90610fb5565b80601f016020809104026020016040519081016040528092919081815260200182805461071790610fb5565b80156107645780601f1061073957610100808354040283529160200191610764565b820191906000526020600020905b81548152906001019060200180831161074757829003601f168201915b50505050509050919050565b6001600160a01b03918216600090815260056020908152604080832093909416825291909152205460ff1690565b6000818152600260205260408120546001600160a01b03168061037157604051637e27328960e01b815260048101849052602401610467565b6105a98383836001610abf565b6000828152600260205260408120546001600160a01b039081169083161561081157610811818486610bc5565b6001600160a01b0381161561084f5761082e600085600080610abf565b6001600160a01b038116600090815260036020526040902080546000190190555b6001600160a01b0385161561087e576001600160a01b0385166000908152600360205260409020805460010190555b60008481526002602052604080822080546001600160a01b0319166001600160a01b0389811691821790925591518793918516917fddf252ad1be2c89b69c2b068fc378daa952ba7f163c4a11628f55a4df523b3ef91a4949350505050565b6001600160a01b03821661090f57604051630b61174360e31b81526001600160a01b0383166004820152602401610467565b6001600160a01b03838116600081815260056020908152604080832094871680845294825291829020805460ff191686151590811790915591519182527f17307eab39ab6107e8899845ad3d59bd9653f200f220920489ca2b5937696c31910160405180910390a3505050565b6001600160a01b0383163b156104cb57604051630a85bd0160e11b81526001600160a01b0384169063150b7a02906109be903390889087908790600401611126565b6020604051808303816000875af19250505080156109f9575060408051601f3d908101601f191682019092526109f691810190611163565b60015b610a62573d808015610a27576040519150601f19603f3d011682016040523d82523d6000602084013e610a2c565b606091505b508051600003610a5a57604051633250574960e11b81526001600160a01b0385166004820152602401610467565b805181602001fd5b6001600160e01b03198116630a85bd0160e11b14610a9e57604051633250574960e11b81526001600160a01b0385166004820152602401610467565b5050505050565b61043d828260405180602001604052806000815250610c29565b8080610ad357506001600160a01b03821615155b15610b95576000610ae38461079e565b90506001600160a01b03831615801590610b0f5750826001600160a01b0316816001600160a01b031614155b8015610b225750610b208184610770565b155b15610b4b5760405163a9fbf51f60e01b81526001600160a01b0384166004820152602401610467565b8115610b935783856001600160a01b0316826001600160a01b03167f8c5be1e5ebec7d5bd14f71427d1e84f3dd0314c0f7b2291e5b200ac8c7c3b92560405160405180910390a45b505b5050600090815260046020526040902080546001600160a01b0319166001600160a01b0392909216919091179055565b610bd0838383610c40565b6105a9576001600160a01b038316610bfe57604051637e27328960e01b815260048101829052602401610467565b60405163177e802f60e01b81526001600160a01b038316600482015260248101829052604401610467565b610c338383610ca6565b6105a9600084848461097c565b60006001600160a01b03831615801590610c9e5750826001600160a01b0316846001600160a01b03161480610c7a5750610c7a8484610770565b80610c9e57506000828152600460205260409020546001600160a01b038481169116145b949350505050565b6001600160a01b038216610cd057604051633250574960e11b815260006004820152602401610467565b6000610cde838360006107e4565b90506001600160a01b038116156105a9576040516339e3563760e11b815260006004820152602401610467565b6001600160e01b03198116811461058b57600080fd5b600060208284031215610d3357600080fd5b8135610d3e81610d0b565b9392505050565b6000815180845260005b81811015610d6b57602081850181015186830182015201610d4f565b506000602082860101526020601f19601f83011685010191505092915050565b602081526000610d3e6020830184610d45565b600060208284031215610db057600080fd5b5035919050565b80356001600160a01b0381168114610dce57600080fd5b919050565b60008060408385031215610de657600080fd5b610def83610db7565b946020939093013593505050565b600080600060608486031215610e1257600080fd5b610e1b84610db7565b9250610e2960208501610db7565b9150604084013590509250925092565b600060208284031215610e4b57600080fd5b610d3e82610db7565b60008060408385031215610e6757600080fd5b610e7083610db7565b915060208301358015158114610e8557600080fd5b809150509250929050565b634e487b7160e01b600052604160045260246000fd5b60008060008060808587031215610ebc57600080fd5b610ec585610db7565b9350610ed360208601610db7565b925060408501359150606085013567ffffffffffffffff80821115610ef757600080fd5b818701915087601f830112610f0b57600080fd5b813581811115610f1d57610f1d610e90565b604051601f8201601f19908116603f01168101908382118183101715610f4557610f45610e90565b816040528281528a6020848701011115610f5e57600080fd5b82602086016020830137600060208483010152809550505050505092959194509250565b60008060408385031215610f9557600080fd5b610f9e83610db7565b9150610fac60208401610db7565b90509250929050565b600181811c90821680610fc957607f821691505b602082108103610fe957634e487b7160e01b600052602260045260246000fd5b50919050565b601f8211156105a9576000816000526020600020601f850160051c810160208610156110185750805b601f850160051c820191505b8181101561103757828155600101611024565b505050505050565b815167ffffffffffffffff81111561105957611059610e90565b61106d816110678454610fb5565b84610fef565b602080601f8311600181146110a2576000841561108a5750858301515b600019600386901b1c1916600185901b178555611037565b600085815260208120601f198616915b828110156110d1578886015182559484019460019091019084016110b2565b50858210156110ef5787850151600019600388901b60f8161c191681555b5050505050600190811b01905550565b60006001820161111f57634e487b7160e01b600052601160045260246000fd5b5060010190565b6001600160a01b038581168252841660208201526040810183905260806060820181905260009061115990830184610d45565b9695505050505050565b60006020828403121561117557600080fd5b8151610d3e81610d0b56fea2646970667358221220831a8d361f13aba5c64408a7189801145e0752c353116d8442ad4dd220a1ec7564736f6c63430008170033","linkReferences":{}},"methodIdentifiers":{"approve(address,uint256)":"095ea7b3","balanceOf(address)":"70a08231","getApproved(uint256)":"081812fc","getTokenId()":"010a38f5","isApprovedForAll(address,address)":"e985e9c5","mintNft()":"c2229fea","name()":"06fdde03","owner()":"8da5cb5b","ownerOf(uint256)":"6352211e","safeTransferFrom(address,address,uint256)":"42842e0e","safeTransferFrom(address,address,uint256,bytes)":"b88d4fde","setApprovalForAll(address,bool)":"a22cb465","supportsInterface(bytes4)":"01ffc9a7","symbol()":"95d89b41","tokenURI(uint256)":"c87b56dd","transferFrom(address,address,uint256)":"23b872dd","withdraw()":"3ccfd60b"},"id":36}